:100000000C942A000C946D010C946D010C946D01FC
:100010000C946D010C946D010C946D010C946D01A8
:100020000C946D010C946D010C946D010C946D0198
:100030000C946D010C946D010C946D010C946D0188
:100040000C946D010C946D010C946D010C946D0178
:100050000C946D0111241FBECFE5D8E0DEBFCDBFEB
:0C0060000E9422010C943400F894FFCFA1
:10006C00843008F072C0683008F06FC04130A1F5E0
:10007C00813089F028F08230C9F0833011F1089575
:10008C002AB381E090E002C0880F991F6A95E2F7CD
:10009C00822B8ABB089527B381E090E002C0880FC1
:1000AC00991F6A95E2F7822B87BB089524B381E0F0
:1000BC0090E002C0880F991F6A95E2F7822B84BBEF
:1000CC00089521B381E090E002C0880F991F6A95D2
:1000DC00E2F7822B81BB0895411137C0813091F03A
:1000EC0028F08230D9F0833029F108952AB381E0C9
:1000FC0090E002C0880F991F6A95E2F780958223E1
:10010C008ABB089527B381E090E002C0880F991F45
:10011C006A95E2F78095822387BB089524B381E02A
:10012C0090E002C0880F991F6A95E2F780958223B0
:10013C0084BB089521B381E090E002C0880F991F21
:0C014C006A95E2F78095822381BB08953C
:10015800843008F072C0683008F06FC04130A1F5F3
:10016800813089F028F08230C9F0833011F1089588
:100178002BB381E090E002C0880F991F6A95E2F7DF
:10018800822B8BBB089528B381E090E002C0880FD2
:10019800991F6A95E2F7822B88BB089525B381E001
:1001A80090E002C0880F991F6A95E2F7822B85BB01
:1001B800089522B381E090E002C0880F991F6A95E4
:1001C800E2F7822B82BB0895411137C0813091F04C
:1001D80028F08230D9F0833029F108952BB381E0DB
:1001E80090E002C0880F991F6A95E2F780958223F4
:1001F8008BBB089528B381E090E002C0880F991F57
:100208006A95E2F78095822388BB089525B381E03B
:1002180090E002C0880F991F6A95E2F780958223C3
:1002280085BB089522B381E090E002C0880F991F32
:0C0238006A95E2F78095822382BB08954E
:1002440041E063E083E00E94360041E062E082E046
:100254000E9436000E944D0180E00E946801982FA0
:10026400917080FF0BC041E063E083E00E94AC002A
:1002740041E062E082E00E94AC00EECF9111ECCF4D
:1002840040E063E083E00E94AC0040E062E082E092
:060294000E94AC00E1CF66
:10029A0040E065E081E00E94360040E064E081E0F1
:1002AA000E94360040E067E081E00E94360041E0AB
:1002BA0066E081E00E9436008DB180648DB98DB10F
:0602CA008F7E8DB908953E
:0A02D0008FB9779BFECF8FB1089520
:0402DA000C94000080
:00000001FF
