:100000000C942A000C947D010C947D010C947D01CC
:100010000C947D010C947D010C947D010C947D0168
:100020000C947D010C947D010C947D010C947D0158
:100030000C947D010C947D010C947D010C947D0148
:100040000C947D010C947D010C947D010C947D0138
:100050000C947D0111241FBECFE5D8E0DEBFCDBFDB
:0C0060000E9461010C943400F894FFCF62
:10006C00843008F072C0683008F06FC04130A1F5E0
:10007C00813089F028F08230C9F0833011F1089575
:10008C002AB381E090E002C0880F991F6A95E2F7CD
:10009C00822B8ABB089527B381E090E002C0880FC1
:1000AC00991F6A95E2F7822B87BB089524B381E0F0
:1000BC0090E002C0880F991F6A95E2F7822B84BBEF
:1000CC00089521B381E090E002C0880F991F6A95D2
:1000DC00E2F7822B81BB0895411137C0813091F03A
:1000EC0028F08230D9F0833029F108952AB381E0C9
:1000FC0090E002C0880F991F6A95E2F780958223E1
:10010C008ABB089527B381E090E002C0880F991F45
:10011C006A95E2F78095822387BB089524B381E02A
:10012C0090E002C0880F991F6A95E2F780958223B0
:10013C0084BB089521B381E090E002C0880F991F21
:0C014C006A95E2F78095822381BB08953C
:10015800843008F072C0683008F06FC04130A1F5F3
:10016800813089F028F08230C9F0833011F1089588
:100178002BB381E090E002C0880F991F6A95E2F7DF
:10018800822B8BBB089528B381E090E002C0880FD2
:10019800991F6A95E2F7822B88BB089525B381E001
:1001A80090E002C0880F991F6A95E2F7822B85BB01
:1001B800089522B381E090E002C0880F991F6A95E4
:1001C800E2F7822B82BB0895411137C0813091F04C
:1001D80028F08230D9F0833029F108952BB381E0DB
:1001E80090E002C0880F991F6A95E2F780958223F4
:1001F8008BBB089528B381E090E002C0880F991F57
:100208006A95E2F78095822388BB089525B381E03B
:1002180090E002C0880F991F6A95E2F780958223C3
:1002280085BB089522B381E090E002C0880F991F32
:0C0238006A95E2F78095822382BB08954E
:1002440041E065E081E00E94360041E064E081E045
:100254000E94360041E067E081E00E94360040E001
:1002640066E081E00E94360041E064E081E00E94A3
:10027400AC008DB180648DB98DB180618DB98DB1C3
:0602840081608DB90895B0
:10028A00CF93DF93C82FD92F41E060E083E00E942B
:10029A00360040E061E083E00E943600D0BDC9B973
:1002AA008AB180618AB98AB188608AB980B5866A5A
:0802BA0080BDDF91CF91089592
:1002C20087E690E00E9445010E9422010E946E0191
:0A02D2000E9479010E947401FBCF25
:0C02DC0040E064E081E00E94AC00089566
:0A02E8008FB9779BFECF8FB1089508
:0802F2005F9BFECF8CB1089563
:0402FA000C94000060
:00000001FF
